{
  "contractName": "Voting",
  "abi": [
    {
      "anonymous": false,
      "inputs": [
        {
          "indexed": true,
          "internalType": "address",
          "name": "previousOwner",
          "type": "address"
        },
        {
          "indexed": true,
          "internalType": "address",
          "name": "newOwner",
          "type": "address"
        }
      ],
      "name": "OwnershipTransferred",
      "type": "event"
    },
    {
      "anonymous": false,
      "inputs": [
        {
          "indexed": false,
          "internalType": "uint256",
          "name": "proposalId",
          "type": "uint256"
        }
      ],
      "name": "ProposalRegistered",
      "type": "event"
    },
    {
      "anonymous": false,
      "inputs": [],
      "name": "ProposalsRegistrationEnded",
      "type": "event"
    },
    {
      "anonymous": false,
      "inputs": [],
      "name": "ProposalsRegistrationStarted",
      "type": "event"
    },
    {
      "anonymous": false,
      "inputs": [
        {
          "indexed": false,
          "internalType": "address",
          "name": "voter",
          "type": "address"
        },
        {
          "indexed": false,
          "internalType": "uint256",
          "name": "proposalId",
          "type": "uint256"
        }
      ],
      "name": "Voted",
      "type": "event"
    },
    {
      "anonymous": false,
      "inputs": [
        {
          "indexed": false,
          "internalType": "address",
          "name": "voterAddress",
          "type": "address"
        }
      ],
      "name": "VoterRegistered",
      "type": "event"
    },
    {
      "anonymous": false,
      "inputs": [],
      "name": "VotesTallied",
      "type": "event"
    },
    {
      "anonymous": false,
      "inputs": [],
      "name": "VotingSessionEnded",
      "type": "event"
    },
    {
      "anonymous": false,
      "inputs": [],
      "name": "VotingSessionStarted",
      "type": "event"
    },
    {
      "anonymous": false,
      "inputs": [
        {
          "indexed": false,
          "internalType": "enum Voting.WorkflowStatus",
          "name": "previousStatus",
          "type": "uint8"
        },
        {
          "indexed": false,
          "internalType": "enum Voting.WorkflowStatus",
          "name": "newStatus",
          "type": "uint8"
        }
      ],
      "name": "WorkflowStatusChange",
      "type": "event"
    },
    {
      "inputs": [],
      "name": "owner",
      "outputs": [
        {
          "internalType": "address",
          "name": "",
          "type": "address"
        }
      ],
      "stateMutability": "view",
      "type": "function",
      "constant": true
    },
    {
      "inputs": [
        {
          "internalType": "uint256",
          "name": "",
          "type": "uint256"
        }
      ],
      "name": "proposals",
      "outputs": [
        {
          "internalType": "string",
          "name": "description",
          "type": "string"
        },
        {
          "internalType": "uint256",
          "name": "voteCount",
          "type": "uint256"
        }
      ],
      "stateMutability": "view",
      "type": "function",
      "constant": true
    },
    {
      "inputs": [],
      "name": "renounceOwnership",
      "outputs": [],
      "stateMutability": "nonpayable",
      "type": "function"
    },
    {
      "inputs": [
        {
          "internalType": "address",
          "name": "newOwner",
          "type": "address"
        }
      ],
      "name": "transferOwnership",
      "outputs": [],
      "stateMutability": "nonpayable",
      "type": "function"
    },
    {
      "inputs": [
        {
          "internalType": "address",
          "name": "",
          "type": "address"
        }
      ],
      "name": "voters",
      "outputs": [
        {
          "internalType": "bool",
          "name": "isRegistered",
          "type": "bool"
        },
        {
          "internalType": "bool",
          "name": "hasVoted",
          "type": "bool"
        },
        {
          "internalType": "uint256",
          "name": "votedProposalId",
          "type": "uint256"
        }
      ],
      "stateMutability": "view",
      "type": "function",
      "constant": true
    },
    {
      "inputs": [],
      "name": "votingStatus",
      "outputs": [
        {
          "internalType": "enum Voting.WorkflowStatus",
          "name": "",
          "type": "uint8"
        }
      ],
      "stateMutability": "view",
      "type": "function",
      "constant": true
    },
    {
      "inputs": [
        {
          "internalType": "address",
          "name": "",
          "type": "address"
        }
      ],
      "name": "whitelist",
      "outputs": [
        {
          "internalType": "bool",
          "name": "",
          "type": "bool"
        }
      ],
      "stateMutability": "view",
      "type": "function",
      "constant": true
    },
    {
      "inputs": [],
      "name": "winningProposalId",
      "outputs": [
        {
          "internalType": "uint256",
          "name": "",
          "type": "uint256"
        }
      ],
      "stateMutability": "view",
      "type": "function",
      "constant": true
    },
    {
      "inputs": [
        {
          "internalType": "address",
          "name": "voterAddress",
          "type": "address"
        }
      ],
      "name": "addWhiteList",
      "outputs": [],
      "stateMutability": "nonpayable",
      "type": "function"
    },
    {
      "inputs": [
        {
          "internalType": "uint256",
          "name": "CoolDown",
          "type": "uint256"
        }
      ],
      "name": "startProposalsRegistration",
      "outputs": [
        {
          "internalType": "uint256",
          "name": "",
          "type": "uint256"
        }
      ],
      "stateMutability": "nonpayable",
      "type": "function"
    },
    {
      "inputs": [
        {
          "internalType": "string",
          "name": "description",
          "type": "string"
        }
      ],
      "name": "addProposal",
      "outputs": [],
      "stateMutability": "nonpayable",
      "type": "function"
    },
    {
      "inputs": [],
      "name": "closeProposalsRegistration",
      "outputs": [],
      "stateMutability": "nonpayable",
      "type": "function"
    },
    {
      "inputs": [
        {
          "internalType": "uint256",
          "name": "Cooldown",
          "type": "uint256"
        }
      ],
      "name": "startVotingSession",
      "outputs": [
        {
          "internalType": "uint256",
          "name": "",
          "type": "uint256"
        }
      ],
      "stateMutability": "nonpayable",
      "type": "function"
    },
    {
      "inputs": [
        {
          "internalType": "uint256",
          "name": "_proposalId",
          "type": "uint256"
        }
      ],
      "name": "addVote",
      "outputs": [
        {
          "internalType": "uint256",
          "name": "",
          "type": "uint256"
        }
      ],
      "stateMutability": "nonpayable",
      "type": "function"
    },
    {
      "inputs": [],
      "name": "closeVotingSession",
      "outputs": [],
      "stateMutability": "nonpayable",
      "type": "function"
    },
    {
      "inputs": [],
      "name": "getWinningProposal",
      "outputs": [
        {
          "internalType": "uint256",
          "name": "_proposalId",
          "type": "uint256"
        }
      ],
      "stateMutability": "nonpayable",
      "type": "function"
    },
    {
      "inputs": [],
      "name": "getWinningInfo",
      "outputs": [
        {
          "internalType": "string",
          "name": "description",
          "type": "string"
        },
        {
          "internalType": "uint256",
          "name": "voteCount",
          "type": "uint256"
        }
      ],
      "stateMutability": "view",
      "type": "function",
      "constant": true
    },
    {
      "inputs": [],
      "name": "getProposalCount",
      "outputs": [
        {
          "internalType": "uint256",
          "name": "",
          "type": "uint256"
        }
      ],
      "stateMutability": "view",
      "type": "function",
      "constant": true
    },
    {
      "inputs": [
        {
          "internalType": "uint256",
          "name": "index",
          "type": "uint256"
        }
      ],
      "name": "getProposal",
      "outputs": [
        {
          "internalType": "uint256",
          "name": "",
          "type": "uint256"
        },
        {
          "internalType": "string",
          "name": "",
          "type": "string"
        },
        {
          "internalType": "uint256",
          "name": "",
          "type": "uint256"
        }
      ],
      "stateMutability": "view",
      "type": "function",
      "constant": true
    }
  ],
  "bytecode": "0x608060405234801561001057600080fd5b5060006100216100c460201b60201c565b9050806000806101000a81548173ffffffffffffffffffffffffffffffffffffffff021916908373ffffffffffffffffffffffffffffffffffffffff1602179055508073ffffffffffffffffffffffffffffffffffffffff16600073ffffffffffffffffffffffffffffffffffffffff167f8be0079c531659141344cd1fd0a4f28419497f9722a3daafe3b4186f6b6457e060405160405180910390a3506100cc565b600033905090565b611cb9806100db6000396000f3fe608060405234801561001057600080fd5b50600436106101215760003560e01c80639980a55a116100ad578063c08cc02d11610071578063c08cc02d1461055b578063c64963c514610579578063c7f758a814610597578063e7cd4a041461064c578063f2fde38b1461069057610121565b80639980a55a146104275780639b19251a146104695780639e782898146104c5578063a3ec138d146104cf578063a51346201461053d57610121565b80634de17bca116100f45780634de17bca146102fd578063715018a6146103075780637686611d146103115780638bc6a6dd1461039b5780638da5cb5b146103dd57610121565b8063013cf08b146101265780630383badc146101d457806319f41a40146102165780632fdae3c514610242575b600080fd5b6101526004803603602081101561013c57600080fd5b81019080803590602001909291905050506106d4565b6040518080602001838152602001828103825284818151815260200191508051906020019080838360005b8381101561019857808201518184015260208101905061017d565b50505050905090810190601f1680156101c55780820380516001836020036101000a031916815260200191505b50935050505060405180910390f35b610200600480360360208110156101ea57600080fd5b810190808035906020019092919050505061079d565b6040518082815260200191505060405180910390f35b61021e61090b565b6040518082600581111561022e57fe5b60ff16815260200191505060405180910390f35b6102fb6004803603602081101561025857600080fd5b810190808035906020019064010000000081111561027557600080fd5b82018360208201111561028757600080fd5b803590602001918460018302840111640100000000831117156102a957600080fd5b91908080601f016020809104026020016040519081016040528093929190818152602001838380828437600081840152601f19601f82011690508083019250505050505050919291929050505061091e565b005b610305610a7c565b005b61030f610bda565b005b610319610d48565b6040518080602001838152602001828103825284818151815260200191508051906020019080838360005b8381101561035f578082015181840152602081019050610344565b50505050905090810190601f16801561038c5780820380516001836020036101000a031916815260200191505b50935050505060405180910390f35b6103c7600480360360208110156103b157600080fd5b8101908080359060200190929190505050610ea9565b6040518082815260200191505060405180910390f35b6103e5611058565b604051808273ffffffffffffffffffffffffffffffffffffffff1673ffffffffffffffffffffffffffffffffffffffff16815260200191505060405180910390f35b6104536004803603602081101561043d57600080fd5b8101908080359060200190929190505050611081565b6040518082815260200191505060405180910390f35b6104ab6004803603602081101561047f57600080fd5b81019080803573ffffffffffffffffffffffffffffffffffffffff1690602001909291905050506111f2565b604051808215151515815260200191505060405180910390f35b6104cd611212565b005b610511600480360360208110156104e557600080fd5b81019080803573ffffffffffffffffffffffffffffffffffffffff169060200190929190505050611370565b604051808415151515815260200183151515158152602001828152602001935050505060405180910390f35b6105456113b4565b6040518082815260200191505060405180910390f35b610563611530565b6040518082815260200191505060405180910390f35b61058161153d565b6040518082815260200191505060405180910390f35b6105c3600480360360208110156105ad57600080fd5b8101908080359060200190929190505050611543565b6040518084815260200180602001838152602001828103825284818151815260200191508051906020019080838360005b8381101561060f5780820151818401526020810190506105f4565b50505050905090810190601f16801561063c5780820380516001836020036101000a031916815260200191505b5094505050505060405180910390f35b61068e6004803603602081101561066257600080fd5b81019080803573ffffffffffffffffffffffffffffffffffffffff169060200190929190505050611630565b005b6106d2600480360360208110156106a657600080fd5b81019080803573ffffffffffffffffffffffffffffffffffffffff16906020019092919050505061198c565b005b600781815481106106e157fe5b9060005260206000209060020201600091509050806000018054600181600116156101000203166002900480601f01602080910402602001604051908101604052809291908181526020018280546001816001161561010002031660029004801561078d5780601f106107625761010080835404028352916020019161078d565b820191906000526020600020905b81548152906001019060200180831161077057829003601f168201915b5050505050908060010154905082565b6000600782815481106107ac57fe5b906000526020600020906002020160010160008154809291906001019190505550604051806060016040528060011515815260200160011515815260200183815250600560003373ffffffffffffffffffffffffffffffffffffffff1673ffffffffffffffffffffffffffffffffffffffff16815260200190815260200160002060008201518160000160006101000a81548160ff02191690831515021790555060208201518160000160016101000a81548160ff021916908315150217905550604082015181600101559050507f4d99b957a2bc29a30ebd96a7be8e68fe50a3c701db28a91436490b7d53870ca43383604051808373ffffffffffffffffffffffffffffffffffffffff1673ffffffffffffffffffffffffffffffffffffffff1681526020018281526020019250505060405180910390a1600782815481106108f257fe5b9060005260206000209060020201600101549050919050565b600660009054906101000a900460ff1681565b6001600460003373ffffffffffffffffffffffffffffffffffffffff1673ffffffffffffffffffffffffffffffffffffffff16815260200190815260200160002060006101000a81548160ff02191690831515021790556109ca576040517f08c379a0000000000000000000000000000000000000000000000000000000008152600401808060200182810382526031815260200180611c536031913960400191505060405180910390fd5b60076040518060400160405280838152602001600081525090806001815401808255809150506001900390600052602060002090600202016000909190919091506000820151816000019080519060200190610a27929190611b87565b50602082015181600101555050600060016007805490500390507f92e393e9b54e2f801d3ea4beb0c5e71a21cc34a5d34b77d0fb8a3aa1650dc18f816040518082815260200191505060405180910390a15050565b610a84611b7f565b73ffffffffffffffffffffffffffffffffffffffff16610aa2611058565b73ffffffffffffffffffffffffffffffffffffffff1614610b2b576040517f08c379a00000000000000000000000000000000000000000000000000000000081526004018080602001828103825260208152602001807f4f776e61626c653a2063616c6c6572206973206e6f7420746865206f776e657281525060200191505060405180910390fd5b6004600660006101000a81548160ff02191690836005811115610b4a57fe5b02179055507f0a97a4ee45751e2abf3e4fc8946939630b11b371ea8ae39ccdc3056e98f5cc3f6003600460405180836005811115610b8457fe5b60ff168152602001826005811115610b9857fe5b60ff1681526020019250505060405180910390a17fc379d349a6301baf50fb2f98d829f4ae10b1cdb7c66f4e4d8117302df7b8cd4c60405160405180910390a1565b610be2611b7f565b73ffffffffffffffffffffffffffffffffffffffff16610c00611058565b73ffffffffffffffffffffffffffffffffffffffff1614610c89576040517f08c379a00000000000000000000000000000000000000000000000000000000081526004018080602001828103825260208152602001807f4f776e61626c653a2063616c6c6572206973206e6f7420746865206f776e657281525060200191505060405180910390fd5b600073ffffffffffffffffffffffffffffffffffffffff166000809054906101000a900473ffffffffffffffffffffffffffffffffffffffff1673ffffffffffffffffffffffffffffffffffffffff167f8be0079c531659141344cd1fd0a4f28419497f9722a3daafe3b4186f6b6457e060405160405180910390a360008060006101000a81548173ffffffffffffffffffffffffffffffffffffffff021916908373ffffffffffffffffffffffffffffffffffffffff160217905550565b60606000806001541415610dc4576040517f08c379a000000000000000000000000000000000000000000000000000000000815260040180806020018281038252601b8152602001807f417563756e652070726f706f736974696f6e206761676e616e7465000000000081525060200191505060405180910390fd5b600760015481548110610dd357fe5b9060005260206000209060020201600001600760015481548110610df357fe5b906000526020600020906002020160010154818054600181600116156101000203166002900480601f016020809104026020016040519081016040528092919081815260200182805460018160011615610100020316600290048015610e9a5780601f10610e6f57610100808354040283529160200191610e9a565b820191906000526020600020905b815481529060010190602001808311610e7d57829003601f168201915b50505050509150915091509091565b6000610eb3611b7f565b73ffffffffffffffffffffffffffffffffffffffff16610ed1611058565b73ffffffffffffffffffffffffffffffffffffffff1614610f5a576040517f08c379a00000000000000000000000000000000000000000000000000000000081526004018080602001828103825260208152602001807f4f776e61626c653a2063616c6c6572206973206e6f7420746865206f776e657281525060200191505060405180910390fd5b8142016002819055506001600660006101000a81548160ff02191690836005811115610f8257fe5b02179055507f0a97a4ee45751e2abf3e4fc8946939630b11b371ea8ae39ccdc3056e98f5cc3f6000600160405180836005811115610fbc57fe5b60ff168152602001826005811115610fd057fe5b60ff1681526020019250505060405180910390a16110226040518060400160405280601481526020017f506c75732064652070726f706f736974696f6e7300000000000000000000000081525061091e565b7f344c25562921d075a298d34b6dd1fd00d36ff293974539dfd4a8c625d9f0064c60405160405180910390a16002549050919050565b60008060009054906101000a900473ffffffffffffffffffffffffffffffffffffffff16905090565b600061108b611b7f565b73ffffffffffffffffffffffffffffffffffffffff166110a9611058565b73ffffffffffffffffffffffffffffffffffffffff1614611132576040517f08c379a00000000000000000000000000000000000000000000000000000000081526004018080602001828103825260208152602001807f4f776e61626c653a2063616c6c6572206973206e6f7420746865206f776e657281525060200191505060405180910390fd5b8142016003819055506003600660006101000a81548160ff0219169083600581111561115a57fe5b02179055507f0a97a4ee45751e2abf3e4fc8946939630b11b371ea8ae39ccdc3056e98f5cc3f600260036040518083600581111561119457fe5b60ff1681526020018260058111156111a857fe5b60ff1681526020019250505060405180910390a17f1b8e19a458c1bcd88553332c518cc5c4e2d5793e712ee766d4f1c14f672ef1f560405160405180910390a16003549050919050565b60046020528060005260406000206000915054906101000a900460ff1681565b61121a611b7f565b73ffffffffffffffffffffffffffffffffffffffff16611238611058565b73ffffffffffffffffffffffffffffffffffffffff16146112c1576040517f08c379a00000000000000000000000000000000000000000000000000000000081526004018080602001828103825260208152602001807f4f776e61626c653a2063616c6c6572206973206e6f7420746865206f776e657281525060200191505060405180910390fd5b6002600660006101000a81548160ff021916908360058111156112e057fe5b02179055507f0a97a4ee45751e2abf3e4fc8946939630b11b371ea8ae39ccdc3056e98f5cc3f600160026040518083600581111561131a57fe5b60ff16815260200182600581111561132e57fe5b60ff1681526020019250505060405180910390a17f240cb87b2e4df4c318e72bd714d45a9cad60249e883ff56b1fffd83a4595a8fa60405160405180910390a1565b60056020528060005260406000206000915090508060000160009054906101000a900460ff16908060000160019054906101000a900460ff16908060010154905083565b60006113be611b7f565b73ffffffffffffffffffffffffffffffffffffffff166113dc611058565b73ffffffffffffffffffffffffffffffffffffffff1614611465576040517f08c379a00000000000000000000000000000000000000000000000000000000081526004018080602001828103825260208152602001807f4f776e61626c653a2063616c6c6572206973206e6f7420746865206f776e657281525060200191505060405180910390fd5b6000809050600080905060008090505b60078054905081101561150957826007828154811061149057fe5b90600052602060002090600202016001015411156114d157600781815481106114b557fe5b90600052602060002090600202016001015492508093506114fc565b82600782815481106114df57fe5b90600052602060002090600202016001015414156114fb578091505b5b8080600101915050611475565b508083141561152257600060018190559250505061152d565b826001819055925050505b90565b6000600780549050905090565b60015481565b600060606000836007858154811061155757fe5b90600052602060002090600202016000016007868154811061157557fe5b906000526020600020906002020160010154818054600181600116156101000203166002900480601f01602080910402602001604051908101604052809291908181526020018280546001816001161561010002031660029004801561161c5780601f106115f15761010080835404028352916020019161161c565b820191906000526020600020905b8154815290600101906020018083116115ff57829003601f168201915b505050505091509250925092509193909250565b611638611b7f565b73ffffffffffffffffffffffffffffffffffffffff16611656611058565b73ffffffffffffffffffffffffffffffffffffffff16146116df576040517f08c379a00000000000000000000000000000000000000000000000000000000081526004018080602001828103825260208152602001807f4f776e61626c653a2063616c6c6572206973206e6f7420746865206f776e657281525060200191505060405180910390fd5b600460008273ffffffffffffffffffffffffffffffffffffffff1673ffffffffffffffffffffffffffffffffffffffff16815260200190815260200160002060009054906101000a900460ff161561179f576040517f08c379a000000000000000000000000000000000000000000000000000000000815260040180806020018281038252601e8152602001807f5574696c697361746575722064c3a96ac3a020656e72656769737472c3a9000081525060200191505060405180910390fd5b6001600460008373ffffffffffffffffffffffffffffffffffffffff1673ffffffffffffffffffffffffffffffffffffffff16815260200190815260200160002060006101000a81548160ff02191690831515021790555060405180606001604052806001151581526020016000151581526020016000815250600560003373ffffffffffffffffffffffffffffffffffffffff1673ffffffffffffffffffffffffffffffffffffffff16815260200190815260200160002060008201518160000160006101000a81548160ff02191690831515021790555060208201518160000160016101000a81548160ff021916908315150217905550604082015181600101559050506000600660006101000a81548160ff021916908360058111156118c457fe5b02179055507f0a97a4ee45751e2abf3e4fc8946939630b11b371ea8ae39ccdc3056e98f5cc3f60056000604051808360058111156118fe57fe5b60ff16815260200182600581111561191257fe5b60ff1681526020019250505060405180910390a17fb6be2187d059cc2a55fe29e0e503b566e1e0f8c8780096e185429350acffd3dd81604051808273ffffffffffffffffffffffffffffffffffffffff1673ffffffffffffffffffffffffffffffffffffffff16815260200191505060405180910390a150565b611994611b7f565b73ffffffffffffffffffffffffffffffffffffffff166119b2611058565b73ffffffffffffffffffffffffffffffffffffffff1614611a3b576040517f08c379a00000000000000000000000000000000000000000000000000000000081526004018080602001828103825260208152602001807f4f776e61626c653a2063616c6c6572206973206e6f7420746865206f776e657281525060200191505060405180910390fd5b600073ffffffffffffffffffffffffffffffffffffffff168173ffffffffffffffffffffffffffffffffffffffff161415611ac1576040517f08c379a0000000000000000000000000000000000000000000000000000000008152600401808060200182810382526026815260200180611c2d6026913960400191505060405180910390fd5b8073ffffffffffffffffffffffffffffffffffffffff166000809054906101000a900473ffffffffffffffffffffffffffffffffffffffff1673ffffffffffffffffffffffffffffffffffffffff167f8be0079c531659141344cd1fd0a4f28419497f9722a3daafe3b4186f6b6457e060405160405180910390a3806000806101000a81548173ffffffffffffffffffffffffffffffffffffffff021916908373ffffffffffffffffffffffffffffffffffffffff16021790555050565b600033905090565b828054600181600116156101000203166002900490600052602060002090601f016020900481019282601f10611bc857805160ff1916838001178555611bf6565b82800160010185558215611bf6579182015b82811115611bf5578251825591602001919060010190611bda565b5b509050611c039190611c07565b5090565b611c2991905b80821115611c25576000816000905550600101611c0d565b5090565b9056fe4f776e61626c653a206e6577206f776e657220697320746865207a65726f2061646472657373566f7573206e27c3aa7465732070617320656e72656769737472c3a920737572206c61206c6973746520626c616e636865a2646970667358221220c279c522b75a24d8bbd7c29588246292eb8fdb3bf95315d7b3c8b4d75c16810c64736f6c634300060b0033",
  "immutableReferences": {},
  "source": "// SPDX-License-Identifier: GPL-3.0\n\npragma solidity 0.6.11;\nimport 'openzeppelin-solidity/contracts/access/Ownable.sol';\n/**\n * @title Voting\n * @dev Smart contract de vote\n */\ncontract Voting is Ownable {\n\n    struct Voter {\n        bool isRegistered;\n        bool hasVoted;\n        uint votedProposalId;\n    }\n\n    struct Proposal {\n        string description;\n        uint voteCount;\n    }\n\n    enum WorkflowStatus {\n        RegisteringVoters,\n        ProposalsRegistrationStarted,\n        ProposalsRegistrationEnded,\n        VotingSessionStarted,\n        VotingSessionEnded,\n        VotesTallied\n    }\n\n    event VoterRegistered(address voterAddress);\n    event ProposalsRegistrationStarted();\n    event ProposalsRegistrationEnded();\n    event ProposalRegistered(uint proposalId);\n    event VotingSessionStarted();\n    event VotingSessionEnded();\n    event Voted (address voter, uint proposalId);\n    event VotesTallied();\n    event WorkflowStatusChange(WorkflowStatus previousStatus, WorkflowStatus newStatus);\n\n    uint public winningProposalId; \n    uint endRegistrationDate;\n    uint endVoteDate; \n\n    mapping(address => bool) public whitelist;\n    mapping(address => Voter) public voters;\n    \n    WorkflowStatus public votingStatus;\n    Proposal[] public proposals;\n\n    /**\n     * @dev Vrifie si l'utilisateur est enregistr\n     */\n    modifier registred {\n        require(whitelist[msg.sender] = true, \"Vous n'tes pas enregistr sur la liste blanche\");\n        _;\n    }\n    \n    /**\n     * @dev Ajouter un lecteur  la liste blanche\n     * @param voterAddress Adresse du votant\n     */\n    function addWhiteList(address voterAddress) public onlyOwner {\n        require(!whitelist[voterAddress], \"Utilisateur dj enregistr\");\n        whitelist[voterAddress] = true;\n        voters[msg.sender] = Voter(true, false, 0);\n        votingStatus = WorkflowStatus.RegisteringVoters;\n        emit WorkflowStatusChange(WorkflowStatus.VotesTallied, WorkflowStatus.RegisteringVoters);\n        emit VoterRegistered(voterAddress);\n    }\n\n    /**\n     * @dev Dmarrer la session d'enregistrement des propositions\n     * @param CoolDown Dure de la session d'enregistrement\n     */\n    function startProposalsRegistration(uint CoolDown) public onlyOwner returns(uint){\n        // require(votingStatus == WorkflowStatus.RegisteringVoters, \"Les lecteurs n'ont pas t enregistrs\");\n        endRegistrationDate = block.timestamp + CoolDown;\n        votingStatus = WorkflowStatus.ProposalsRegistrationStarted;\n        emit WorkflowStatusChange(WorkflowStatus.RegisteringVoters, WorkflowStatus.ProposalsRegistrationStarted);\n        addProposal(\"Plus de propositions\"); \n        emit ProposalsRegistrationStarted();\n        return endRegistrationDate;\n    }\n\n    /**\n     * @dev Ajouter une proposition\n     * @param description Description de la proposition\n     */\n    function addProposal(string memory description) public registred {\n        // require(votingStatus == WorkflowStatus.ProposalsRegistrationStarted, \"La session d'enregistrement des propositions n'a pas commenc\");\n        // require(block.timestamp < endRegistrationDate, \"La session d'enregistrement des propositions est termin\");\n        proposals.push(Proposal(description,0));\n        uint id = proposals.length-1; \n        emit ProposalRegistered(id);\n    }\n\n    /**\n     * @dev Mettre fin  la session d'enregistrement des propositions\n     */\n    function closeProposalsRegistration() public onlyOwner {\n        // require(votingStatus == WorkflowStatus.ProposalsRegistrationStarted, \"La session d'enregistrement des propositions n'a pas commenc\");\n        // require(block.timestamp >= endRegistrationDate, \"La session d'enregistrement des propositions n'est pas termin\");\n        votingStatus = WorkflowStatus.ProposalsRegistrationEnded;\n        emit WorkflowStatusChange(WorkflowStatus.ProposalsRegistrationStarted, WorkflowStatus.ProposalsRegistrationEnded);\n        emit ProposalsRegistrationEnded();\n    }\n\n    /**\n     * @dev Dmarrer la session de vote\n     * @param Cooldown Dure de la session d'enregistrement\n     * @return uint Nombre de vote \n     */\n    function startVotingSession(uint Cooldown) public onlyOwner returns(uint){\n        // require(votingStatus == WorkflowStatus.ProposalsRegistrationEnded, \"La session d'enregistrement des propositions n'est pas termine\");\n        endVoteDate = block.timestamp + Cooldown;\n        votingStatus = WorkflowStatus.VotingSessionStarted;\n        emit WorkflowStatusChange(WorkflowStatus.ProposalsRegistrationEnded, WorkflowStatus.VotingSessionStarted);\n        emit VotingSessionStarted();\n        return endVoteDate;\n    }\n\n    /**\n     * @dev Voter pour une proposition\n     * @param _proposalId ID de la proposition\n     * @return uint Nombre de vote \n     */\n    function addVote(uint _proposalId) public returns (uint){\n        // require(votingStatus == WorkflowStatus.VotingSessionStarted, \"La session de vote n'a pas commenc\");\n        // require(voters[msg.sender].hasVoted == false, \"Vous avez dj vot\");\n        proposals[_proposalId].voteCount++;\n        voters[msg.sender] = Voter(true, true, _proposalId);\n        emit Voted (msg.sender, _proposalId);\n        return proposals[_proposalId].voteCount;\n    }\n\n    /**\n     * @dev Mettre fin  la session de vote\n     */\n    function closeVotingSession() public onlyOwner {\n        // require(block.timestamp >= endVoteDate, \"La session de vote n'est pas termine\");\n        // require(votingStatus == WorkflowStatus.VotingSessionStarted, \"La session de vote n'a pas commenc\");\n        votingStatus = WorkflowStatus.VotingSessionEnded;\n        emit WorkflowStatusChange(WorkflowStatus.VotingSessionStarted, WorkflowStatus.VotingSessionEnded);\n        emit VotingSessionEnded();\n    }\n    \n    /**\n     * @dev Comptabilise les votes pour rcuprer la proposition gagnante\n     * @return _proposalId ID de la proposition gagnante\n     */\n    function getWinningProposal() public onlyOwner returns (uint _proposalId) {\n        uint winnerVoteCount = 0;\n        uint challenger = 0;\n        for (uint i = 0; i < proposals.length; i++) {\n            if (proposals[i].voteCount > winnerVoteCount) {\n                winnerVoteCount = proposals[i].voteCount;\n                _proposalId = i;\n            } else if (proposals[i].voteCount == winnerVoteCount) {\n                challenger = i;\n            }\n        }\n\n        if(_proposalId == challenger) {\n            return winningProposalId = 0;\n        }\n\n        return winningProposalId = _proposalId;\n    }\n            \n    /**\n     * @dev Rcupre les informations concernant la proposition gagnante\n     * @return description Description de la proposition\n     * @return voteCount Nombre de vote \n     */\n    function getWinningInfo() public view returns (string memory description, uint voteCount) {\n        require(winningProposalId != 0, \"Aucune proposition gagnante\");\n        return (proposals[winningProposalId].description, proposals[winningProposalId].voteCount);\n    }\n    \n    /**\n     * @dev Rcupre le nombre de propositions\n     * @return uint Nombre de propositions\n    */\n    function getProposalCount() public view returns(uint) {\n        return proposals.length;\n    }\n        \n    /**\n     * @dev Rcupre les informations concernant une proposition\n     * @param index ID de la proposition\n     * @return uint ID\n     * @return string Description\n     * @return uint Nombre de votes\n    */\n    function getProposal(uint index) public view returns(uint, string memory, uint) {\n        return (index, proposals[index].description, proposals[index].voteCount);\n    }\n}",
  "sourcePath": "/var/www/html/alyra/voting/contracts/Voting.sol",
  "compiler": {
    "name": "solc",
    "version": "0.6.11+commit.5ef660b1.Emscripten.clang"
  },
  "schemaVersion": "3.3.4",
  "updatedAt": "2021-03-10T18:04:59.804Z",
  "networkType": "ethereum",
  "devdoc": {
    "details": "Smart contract de vote",
    "kind": "dev",
    "methods": {
      "addProposal(string)": {
        "details": "Ajouter une proposition",
        "params": {
          "description": "Description de la proposition"
        }
      },
      "addVote(uint256)": {
        "details": "Voter pour une proposition",
        "params": {
          "_proposalId": "ID de la proposition"
        },
        "returns": {
          "_0": "uint Nombre de vote "
        }
      },
      "addWhiteList(address)": {
        "details": "Ajouter un lecteur  la liste blanche",
        "params": {
          "voterAddress": "Adresse du votant"
        }
      },
      "closeProposalsRegistration()": {
        "details": "Mettre fin  la session d'enregistrement des propositions"
      },
      "closeVotingSession()": {
        "details": "Mettre fin  la session de vote"
      },
      "getProposal(uint256)": {
        "details": "Rcupre les informations concernant une proposition",
        "params": {
          "index": "ID de la proposition"
        },
        "returns": {
          "_0": "uint ID",
          "_1": "string Description",
          "_2": "uint Nombre de votes"
        }
      },
      "getProposalCount()": {
        "details": "Rcupre le nombre de propositions",
        "returns": {
          "_0": "uint Nombre de propositions"
        }
      },
      "getWinningInfo()": {
        "details": "Rcupre les informations concernant la proposition gagnante",
        "returns": {
          "description": "Description de la proposition",
          "voteCount": "Nombre de vote "
        }
      },
      "getWinningProposal()": {
        "details": "Comptabilise les votes pour rcuprer la proposition gagnante",
        "returns": {
          "_proposalId": "ID de la proposition gagnante"
        }
      },
      "owner()": {
        "details": "Returns the address of the current owner."
      },
      "renounceOwnership()": {
        "details": "Leaves the contract without owner. It will not be possible to call `onlyOwner` functions anymore. Can only be called by the current owner. NOTE: Renouncing ownership will leave the contract without an owner, thereby removing any functionality that is only available to the owner."
      },
      "startProposalsRegistration(uint256)": {
        "details": "Dmarrer la session d'enregistrement des propositions",
        "params": {
          "CoolDown": "Dure de la session d'enregistrement"
        }
      },
      "startVotingSession(uint256)": {
        "details": "Dmarrer la session de vote",
        "params": {
          "Cooldown": "Dure de la session d'enregistrement"
        },
        "returns": {
          "_0": "uint Nombre de vote "
        }
      },
      "transferOwnership(address)": {
        "details": "Transfers ownership of the contract to a new account (`newOwner`). Can only be called by the current owner."
      }
    },
    "title": "Voting",
    "version": 1
  },
  "userdoc": {
    "kind": "user",
    "methods": {},
    "version": 1
  }
}